:020000040800F2
:100000000000022025120008751100087D1100086B
:10001000851100088D1100089511000800000000EE
:100020000000000000000000000000009D1100081A
:10003000AB11000800000000B9110008C71100084A
:100040007512000875120008751200087512000874
:100050007512000875120008751200087512000864
:100060007512000875120008751200087512000854
:100070007512000875120008751200087512000844
:100080007512000875120008751200087512000834
:100090007512000875120008751200087512000824
:1000A0007512000875120008751200087512000814
:1000B000751200087512000875120008D5110008A5
:1000C00075120008751200087512000875120008F4
:1000D00075120008751200087512000875120008E4
:1000E00075120008751200087512000875120008D4
:1000F00075120008751200087512000875120008C4
:1001000075120008751200087512000875120008B3
:1001100075120008751200087512000875120008A3
:100120007512000875120008751200087512000893
:100130007512000875120008751200087512000883
:10014000751200087512000875120008ED110008FC
:100150007512000875120008751200087512000863
:100160007512000875120008751200087512000853
:1001700075120008751200087512000800000000D2
:08018000751200087512000859
:1001880010B5054C237833B9044B13B10448AFF3C9
:1001980000800123237010BDFC0000200000000037
:1001A80080A8000808B5034B1BB103490348AFF307
:1001B800008008BD000000000001002080A80008A1
:1001C80053B94AB9002908BF00281CBF4FF0FF31B6
:1001D8004FF0FF3000F06AB9ADF1080C6DE904CEBC
:1001E80000F006F8DDF804E0DDE9022304B070470A
:1001F8002DE9F047089D0C46002B4ED194468C45BE
:100208008646B2FA82F262D94AB1C2F1200391401D
:1002180020FA03F30CFA02FC194300FA02FE4FEA33
:100228001C471FFA8CF6B1FBF7F44FEA1E4307FB95
:10023800141143EA014304FB06F199420AD91CEB65
:10024800030304F1FF3080F01281994240F20F81DC
:10025800023C6344591A1FFA8EF3B1FBF7F007FB0F
:10026800101143EA014300FB06F69E420AD91CEB33
:10027800030300F1FF3180F0FC809E4240F2F980D8
:10028800634402389B1B40EA044000211DB1D3405F
:100298000022C5E90032BDE8F0878B4205D90DB1CF
:1002A800C5E9000100210846F5E7B3FA83F1002902
:1002B80046D1A34202D39042C0F0F080861A64EB84
:1002C80003030120002DE6D0C5E90063E3E7002A17
:1002D80040F09080A1EB0C044FEA1C481FFA8CF701
:1002E8000121B4FBF8F64FEA1E4308FB164443EA23
:1002F800044307FB06F0984208D91CEB030306F1F8
:10030800FF3402D2984200F2CD8026461C1A1FFA0A
:100318008EF3B4FBF8F008FB104443EA044300FBF7
:1003280007F79F4208D91CEB030300F1FF3402D200
:100338009F4200F2B0802046DB1B40EA0640A5E75A
:10034800C1F120068B4022FA06F71F4320FA06FC6B
:1003580004FA01F343EA0C03F44000FA01F8380CFC
:100368004FEA1349B4FBF0FE1FFA87FC00FB1E445A
:1003780049EA04440EFB0CF9A14502FA01F20AD934
:100388003C190EF1FF3A80F08480A14540F281804B
:10039800AEF1020E3C44A4EB09041FFA83F9B4FB46
:1003A800F0F300FB134449EA044403FB0CFCA445A6
:1003B80007D93C1903F1FF3067D2A44565D9023B40
:1003C8003C4443EA0E40A0FB0293A4EB0C049C427D
:1003D800CE469C4651D34ED055B1B8EB0E0364EBD4
:1003E8000C0404FA06F6CB401E43CC40C5E9006471
:1003F800002150E7C2F1200320FA03F10CFA02FCB5
:1004080024FA03F394400C434FEA1C4800FA02FE16
:100418001FFA8CF7B3FBF8F008FB1031230C43EA02
:10042800014300FB07F1994208D91CEB030300F1D3
:10043800FF362CD299422AD9023863445B1AA4B2F7
:10044800B3FBF8F108FB113344EA034401FB07F35B
:10045800A34208D91CEB040401F1FF3613D2A342CE
:1004680011D902396444E41A41EA004139E70446E3
:10047800F0E6084606E7C845AED2B9EB020E63EBD4
:10048800070C0138A8E73146EDE7034699E73046FF
:10049800D4E7D6467FE7634402384DE7064623464D
:1004A80008460FE7023E634430E700BF704700BFCD
:1004B80080B500AF00F0DCFE00F00CF800F0F8F8B2
:1004C80009F070FC00F0CAF800F06CF800F098F839
:1004D80000BFFDE780B594B000AF07F120033022DC
:1004E800002118460AF08EF907F10C0300221A6061
:1004F8005A609A60DA601A610023BB60274B1B6C54
:10050800264A43F080531364244B1B6C03F080533A
:10051800BB60BB6800237B60214B1B68204A43F407
:10052800804313601E4B1B6803F480437B607B6829
:1005380001233B624FF480337B620223BB634FF499
:100548008003FB6304233B6448237B640223BB646E
:100558000323FB6407F12003184605F0ADF90346B1
:10056800002B01D000F006FD0F23FB6002233B6146
:1005780000237B614FF48053BB610023FB6107F1CB
:100588000C030221184605F00FFC0346002B01D08E
:1005980000F0F0FC00BF5037BD4680BD0038024077
:1005A8000070004080B500AF124B134A1A60114B1F
:1005B800124A5A600F4B00229A600E4B0022DA60F2
:1005C8000C4B4FF480421A610A4B00225A61094BC6
:1005D80000229A61074B0022DA61064B00221A6258
:1005E800044801F0EDF90346002B01D000F0C2FCED
:1005F80000BF80BD1801002000540040801A06008A
:1006080080B500AF124B134A1A60114B124A5A6058
:100618000F4B00229A600E4B0022DA600C4B4FF40D
:1006280080421A610A4B00225A61094B00229A61E2
:10063800074B0022DA61064B00221A62044801F0D7
:10064800BFF90346002B01D000F094FC00BF80BD29
:100658006C01002000580040801A060080B500AFE9
:10066800114B124A1A60104B4FF4E1325A600E4B8C
:1006780000229A600C4B0022DA600B4B00221A61B0
:10068800094B0C225A61084B00229A61064B002242
:10069800DA61054805F0A8FD0346002B01D000F0FB
:1006A80069FC00BF80BD00BFC001002000440040BD
:1006B80080B58CB000AF07F11C0300221A605A60A5
:1006C8009A60DA601A610023BB61824B1B6B814A16
:1006D80043F0100313637F4B1B6B03F01003BB61E4
:1006E800BB6900237B617B4B1B6B7A4A43F0040395
:1006F8001363784B1B6B03F004037B617B69002356
:100708003B61744B1B6B734A43F080031363714B5B
:100718001B6B03F080033B613B690023FB606D4B5F
:100728001B6B6C4A43F0010313636A4B1B6B03F0AA
:100738000103FB60FB680023BB60664B1B6B654ACB
:1007480043F002031363634B1B6B03F00203BB60AC
:10075800BB6800237B605F4B1B6B5E4A43F008035A
:1007680013635C4B1B6B03F008037B607B68002200
:100778000821594801F0F0F801220121574801F0F9
:10078800EBF800224FF21001554801F0E5F8082374
:10079800FB6101233B6200237B620023BB6207F1FC
:1007A8001C0319464C4800F03BFF0123FB61012361
:1007B8003B6200237B620023BB6207F11C031946DE
:1007C800464800F02DFF0823FB6102233B6200230B
:1007D8007B620023BB620523FB6207F11C031946F9
:1007E8003E4800F01DFF0123FB614FF488133B6274
:1007F80000237B6207F11C0319463A4800F010FFFA
:100808001023FB6102233B6200237B620023BB624F
:100818000623FB6207F11C031946324800F000FF6B
:10082800E023FB6102233B6200237B620023BB625F
:100838000523FB6207F11C0319462A4800F0F0FE65
:100848000423FB6100233B6200237B6207F11C0346
:100858001946254800F0E4FE4FF21003FB6101231E
:100868003B6200237B620023BB6207F11C0319462D
:100878001B4800F0D5FE4FF4A453FB6102233B62F2
:1008880000237B620023BB620623FB6207F11C0383
:100898001946124800F0C4FE2023FB6100233B6286
:1008A80000237B6207F11C0319460D4800F0B8FECF
:1008B8000223FB614FF490133B6200237B6207F134
:1008C8001C031946044800F0ABFE00BF3037BD4694
:1008D80080BD00BF003802400010024000080240FE
:1008E800000C0240000002400004024090B58BB0AA
:1008F80004AF786039604FF48041994801F045F8B9
:10090800984B00221A70984B00221A707B681B784B
:1009180003F0F003102B0FD1944A954B104619465B
:1009280054231A4609F09AFF7B681B7803F00F03DB
:10093800DAB27B681A701BE07B681B7803F0F0035F
:10094800202B0FD1894A8B4B1046194654231A463F
:1009580009F084FF7B681B7803F00F03DAB27B6829
:100968001A7005E07F4BEB221A7000F0DFFA30E2D4
:100978007B681A78804B1A707F4B1A787F4B1A70F5
:100988007D4B1B78022B04D07B4B1B78032B40F04C
:100998000481794B1B78022B02D13B68042B06D9C2
:1009A800754B1B78032B06D13B68052B03D86D4B81
:1009B800E4221A7001E27B6801331B785BB2002BDA
:1009C80003DA684BE0221A70F7E17B6802331B7880
:1009D800082B03D9634BE7221A70EEE17B680333D7
:1009E8001B78642B03D95F4BE1221A70E5E17B6821
:1009F80004331B78022B03D95A4BE8221A70DCE126
:100A08005D4B1B78022B4BD100237B6140E07B6858
:100A180001331B781A467B699BB213449BB25B0077
:100A280099B27B6803331B781C464F4B1B781A46D8
:100A3800534B13447A68043212781046012202920A
:100A48000190009301232246484801F00DFA03461D
:100A58001A464C4B1A707B6804331A78424B1B7841
:100A68001344DAB2404B1A70464B1B78002B0CD05B
:100A780001227B6902FA03F35AB23A4B1B785BB244
:100A880013435BB2DAB2374B1A707B6901337B616F
:100A98007B6802331B781A467B699342B7DB57E0C1
:100AA800354B1B78032B53D100233B6141E07B6816
:100AB80001331B781A463B699BB213449BB25B0017
:100AC80099B27B6803331B781C46274B1B78053388
:100AD8001A467B6813447A68043212781046012259
:100AE80002920190009301232246204801F0C2F8A7
:100AF80003461A46234B1A707B6804331A781A4B3C
:100B08001B781344DAB2184B1A701E4B1B78002B53
:100B18000CD001223B6902FA03F35AB2114B1B783D
:100B28005BB213435BB2DAB20E4B1A703B69013306
:100B38003B617B6802331B781A463B699342B6DBFC
:100B48007B680533084A127819460D4809F086FE75
:100B5800044B1B78002B17D10A4B00221A7016E0A1
:100B6800000C02401A020020180200203402002063
:100B7800180100206C010020300200201C02002017
:100B88000802002019020020934B01221A70924B90
:100B98001B78184600F064F91BE1904B1B78002B7A
:100BA80004D08E4B1B78012B40F093808B4B1B7825
:100BB800002B02D13B68032B06D9884B1B78012BED
:100BC80006D13B68042B03D8854BE4221A707FE0DA
:100BD8007B6801331B785BB2002B03DA804BE02281
:100BE8001A70E9E07B6802331B78642B03D97C4BCD
:100BF800E1221A70E0E07B6803331B78102B03D9DD
:100C0800774BE2221A70D7E07B681B78002B07D05D
:100C18007B681B78012B03D0714BE3221A7057E0D5
:100C28007B68DA786F4B1A706C4B1B78012B29D1D3
:100C38007B6804336B4A127819466B4809F00EFE3C
:100C48007B6801331B785B0099B27B6802331B78A1
:100C58001C467B6804337A680332127810460122F6
:100C680002920190009301232246604801F002F8A5
:100C780003461A46584B1A70574B1B78184600F013
:100C8800EFF8A6E0554B1B78002B40F095807B6869
:100C980001331B785B0099B27B6802331B781846D6
:100CA8007B6803331B781A460123029301924E4B4B
:100CB8000093012302464D4801F0D6F803461A4630
:100CC800454B1A70444B1B78184600F0C9F880E071
:100CD80072E0424B1B78042B6AD13B68022B03D885
:100CE8003F4BE4221A7068E07B6801331B781A4690
:100CF8007B6802331B7813447F2B03DD384BE022DB
:100D08001A705AE07B6802331B78102B03D9344BD6
:100D1800E9221A7051E00023FB6031E07B6801335F
:100D28001B781A46FB689BB213449BB25B0099B2CE
:100D3800012302222D4801F0C9FA03461A46264B20
:100D48001A70284B1B780133DAB2264B1A70224BE3
:100D58001B78002B05D1244AFB68134400221A7023
:100D68000BE0214AFB681344FF221A701C4B1B78C6
:100D7800002B02D11A4BEA221A70FB680133FB6080
:100D88007B6802331B781A46FB689342C6DB144B18
:100D98001B78EA2B06D1104B1B78002B02D10E4B87
:100DA80001221A700C4B1B78184600F059F810E015
:100DB8000B4BE6221A7000E000BF094B1B78002B92
:100DC80007D001224FF40051094800F0C5FD00F09A
:100DD800ADF81C37BD4690BD190200203002002036
:100DE8001A02002018020020080200203402002005
:100DF800000C024080B582B000AF40F6EE73BB80B5
:100E08004FF48051104800F0C0FD104B1A78104B79
:100E18005A70104B1B781A460F49104809F01EFDEE
:100E28000C4B1B7802330A4A1344BA881A80094BC0
:100E38001B7804339BB21946054809F079F800BFBE
:100E48000837BD4680BD00BF000C02401A020020D2
:100E58001C02002018020020080200201E020020A8
:100E680080B582B000AF0346FB71FB79002B05D03B
:100E7800002B51DB013B022B4ED823E000224FF41C
:100E88000051274800F068FD264B1B78002B03D043
:100E9800244B1B78012B02D1FFF7ACFF11E0214B4B
:100EA8001B78022B03D01F4B1B78032B02D1FFF7B3
:100EB800A1FF06E01B4B1B78042B2AD1FFF79AFFF2
:100EC80027E026E001224FF40051154800F044FDC8
:100ED800144B1B78002B03D0124B1B78012B05D128
:100EE800114BE5221A7000F021F811E00D4B1B7828
:100EF800022B03D00B4B1B78032B02D1FFF77AFF91
:100F080006E0084B1B78042B05D1FFF773FF02E0BE
:100F180001E000BF00E000BF00BF0837BD4680BD4C
:100F2800000C0240300200201A02002080B582B076
:100F380000AF40F6EE73BB800B4B1A780B4B5A7020
:100F48000B4B1B780233094A1344BA881A80084BA2
:100F58001B7804339BB21946044808F0E9FF00BF28
:100F68000837BD4680BD00BF1A0200201C020020C1
:100F78001802002080B400AF72B600BF00BFFDE7C2
:100F880080B582B000AF00237B60104B5B6C0F4ACA
:100F980043F4804353640D4B5B6C03F480437B60E4
:100FA8007B6800233B60094B1B6C084A43F0805365
:100FB8001364064B1B6C03F080533B603B680620B0
:100FC80000F0BCFA00BF0837BD4680BD00380240BB
:100FD80080B58CB000AF786007F11C0300221A605E
:100FE8005A609A60DA601A617B681B68374A9342D4
:100FF80035D10023BB61364B1B6B354A43F00203E6
:101008001363334B1B6B03F00203BB61BB694FF4E3
:101018001073FB6112233B6200237B620023BB62D7
:101028000423FB6207F11C0319462A4800F0F8FA6A
:1010380000237B61264B1B6C254A43F40013136481
:10104800234B1B6C03F400137B617B690022012195
:101058001F2000F07EFA1F2000F097FA31E07B682D
:101068001B681D4A93422CD100233B61184B1B6B14
:10107800174A43F002031363154B1B6B03F002037B
:101088003B613B694FF44063FB6112233B620023E1
:101098007B620323BB620423FB6207F11C0319462E
:1010A8000C4800F0BDFA0023FB60094B1B6C084A92
:1010B80043F480031364064B1B6C03F48003FB604A
:1010C800FB6800BF3037BD4680BD00BF00540040FC
:1010D80000380240000402400058004080B58AB041
:1010E80000AF786007F1140300221A605A609A6012
:1010F800DA601A617B681B68194A93422BD1002376
:101108003B61184B1B6C174A43F400331364154BAF
:101118001B6C03F400333B613B690023FB60114BFC
:101128001B6B104A43F0010313630E4B1B6B03F058
:101138000103FB60FB680C237B610223BB61002376
:10114800FB6103233B6207237B6207F11403194603
:10115800054800F065FA00BF2837BD4680BD00BFCE
:1011680000440040003802400000024080B400AF54
:1011780000BFFDE780B400AF00BFFDE780B400AF5B
:1011880000BFFDE780B400AF00BFFDE780B400AF4B
:1011980000BFFDE780B400AF00BFBD465DF8047B2B
:1011A800704780B400AF00BFBD465DF8047B704750
:1011B80080B400AF00BFBD465DF8047B704780B5C2
:1011C80000AF00F0A7F800BF80BD000080B500AFF9
:1011D800FFF710FE024801F0A7F900BF80BD00BF6D
:1011E8001801002080B500AF024803F056FA00BF8E
:1011F80080BD00BF6C17002080B400AF064BD3F849
:101208008830054A43F47003C2F8883000BFBD46F1
:101218005DF8047B704700BF00ED00E0DFF834D0D4
:10122800FFF7EAFF0C480D490D4A002302E0D458A5
:10123800C4500433C4188C42F9D30A4A0A4C002318
:1012480001E013600432A242FBD309F0E3FAFFF78E
:101258002FF970470000022000000020FC00002049
:1012680008A90008FC000020701E0020FEE700000E
:1012780080B500AF0E4B1B680D4A43F40073136032
:101288000B4B1B680A4A43F480631360084B1B68C6
:10129800074A43F480731360032000F04FF90020DD
:1012A80000F008F8FFF76CFE0023184680BD00BF69
:1012B800003C024080B582B000AF7860124B1A68DB
:1012C800124B1B7819464FF47A73B3FBF1F3B2FB58
:1012D800F3F3184600F067F90346002B01D0012309
:1012E8000EE07B680F2B0AD8002279684FF0FF3098
:1012F80000F02FF9064A7B681360002300E0012301
:1013080018460837BD4680BD0000002008000020B0
:101318000400002080B400AF064B1B781A46064B29
:101328001B681344044A136000BFBD465DF8047B84
:10133800704700BF080000208802002080B400AF7A
:10134800034B1B681846BD465DF8047B704700BF19
:101358008802002080B584B000AF7860FFF7EEFF08
:10136800B8607B68FB60FB68B3F1FF3F05D00A4BB0
:101378001B781A46FB681344FB6000BFFFF7DEFFCB
:101388000246BB68D31AFA689A42F7D800BF00BF72
:101398001037BD4680BD00BF0800002080B485B06E
:1013A80000AF78607B6803F00703FB600C4BDB68D9
:1013B800BB60BA684FF6FF031340BB60FB681A02B4
:1013C800BB68134343F0BF6343F40033BB60044A74
:1013D800BB68D36000BF1437BD465DF8047B704717
:1013E80000ED00E080B400AF044BDB681B0A03F09B
:1013F80007031846BD465DF8047B704700ED00E022
:1014080080B483B000AF0346FB7197F90730002B17
:101418000BDBFB7903F01F02074997F907305B09DB
:10142800012000FA02F241F8232000BF0C37BD4624
:101438005DF8047B704700BF00E100E080B483B032
:1014480000AF03463960FB7197F90730002B0ADBC0
:101458003B68DAB20C4997F907301201D2B20B4453
:1014680083F800230AE03B68DAB20849FB7903F005
:101478000F03043B1201D2B20B441A7600BF0C379B
:10148800BD465DF8047B704700E100E000ED00E038
:1014980080B489B000AFF860B9607A60FB6803F087
:1014A8000703FB61FB69C3F10703042B28BF04236F
:1014B800BB61FB690433062B02D9FB69033B00E0DF
:1014C80000237B614FF0FF32BB6902FA03F3DA4372
:1014D800BB681A407B699A404FF0FF317B6901FA7B
:1014E80003F3D9437B680B40134318462437BD46A2
:1014F8005DF8047B7047000080B582B000AF78606B
:101508007B68013BB3F1807F01D301230FE00A4AD6
:101518007B68013B53600F214FF0FF30FFF78EFFD0
:10152800054B00229A60044B07221A6000231846D4
:101538000837BD4680BD00BF10E000E080B582B02E
:1015480000AF78607868FFF729FF00BF0837BD460D
:1015580080BD80B586B000AF0346B9607A60FB7382
:1015680000237B61FFF73EFF78617A68B968786984
:10157800FFF78EFF024697F90F3011461846FFF71E
:101588005DFF00BF1837BD4680BD80B582B000AF93
:101598000346FB7197F907301846FFF731FF00BF84
:1015A8000837BD4680BD80B582B000AF78607868E6
:1015B800FFF7A2FF034618460837BD4680BD80B432
:1015C80083B000AF78607B6893F83530DBB2022BCC
:1015D80004D07B6880225A6501230CE07B680522D1
:1015E80083F835207B681B681A687B681B6822F0C3
:1015F80001021A60002318460C37BD465DF8047BCB
:10160800704780B483B000AF78607B6893F835305A
:10161800DBB218460C37BD465DF8047B7047000006
:1016280080B489B000AF7860396000237B61002303
:101638003B610023BB610023FB616BE10122FB6975
:1016480002FA03F37B613B681B687A6913403B61CC
:101658003A697B699A4240F05A813B685B6803F0BB
:101668000303012B05D03B685B6803F00303022BDF
:1016780030D17B689B68BB61FB695B00032202FA7F
:1016880003F3DB43BA691340BB613B68DA68FB6963
:101698005B0002FA03F3BA691343BB617B68BA695A
:1016A8009A607B685B68BB610122FB6902FA03F3FD
:1016B800DB43BA691340BB613B685B681B0903F0F5
:1016C8000102FB6902FA03F3BA691343BB617B6841
:1016D800BA695A603B685B6803F00303032B17D0B1
:1016E8007B68DB68BB61FB695B00032202FA03F3DA
:1016F800DB43BA691340BB613B689A68FB695B00CE
:1017080002FA03F3BA691343BB617B68BA69DA600A
:101718003B685B6803F00303022B23D1FB69DA08FB
:101728007B68083253F82230BB61FB6903F007037A
:101738009B000F2202FA03F3DB43BA691340BB6133
:101748003B681A69FB6903F007039B0002FA03F37D
:10175800BA691343BB61FB69DA087B680832B96967
:1017680043F822107B681B68BB61FB695B0003229E
:1017780002FA03F3DB43BA691340BB613B685B6859
:1017880003F00302FB695B0002FA03F3BA6913432F
:10179800BB617B68BA691A603B685B6803F44033D5
:1017A800002B00F0B4800023FB60604B5B6C5F4A49
:1017B80043F4804353645D4B5B6C03F48043FB60EC
:1017C800FB685B4AFB699B08023352F82330BB6114
:1017D800FB6903F003039B000F2202FA03F3DB43C8
:1017E800BA691340BB617B68524A93422BD07B682D
:1017F800514A934225D07B68504A93421FD07B6858
:101808004F4A934219D07B684E4A934213D07B6863
:101818004D4A93420DD07B684C4A934207D07B686F
:101828004B4A934201D107230EE008230CE006231C
:101838000AE0052308E0042306E0032304E002236A
:1018480002E0012300E00023FA6902F0030292009B
:101858009340BA691343BB613549FB699B0802335E
:10186800BA6941F823203B4B9B68BB613B69DB436A
:10187800BA691340BB613B685B6803F48013002BB3
:1018880003D0BA693B691343BB61324ABB699360B1
:10189800304BDB68BB613B69DB43BA691340BB6112
:1018A8003B685B6803F40013002B03D0BA693B69FB
:1018B8001343BB61274ABB69D360264B5B68BB6196
:1018C8003B69DB43BA691340BB613B685B6803F45F
:1018D8000033002B03D0BA693B691343BB611D4A2F
:1018E800BB6953601B4B1B68BB613B69DB43BA692F
:1018F8001340BB613B685B6803F48033002B03D063
:10190800BA693B691343BB61124ABB691360FB693F
:101918000133FB61FB690F2B7FF690AE00BF00BF60
:101928002437BD465DF8047B704700BF003802408D
:101938000038014000000240000402400008024054
:10194800000C02400010024000140240001802403F
:10195800001C0240003C014080B483B000AF7860B6
:101968000B467B8013467B707B78002B03D07A88EC
:101978007B689A6103E07B881A047B689A6100BFE0
:101988000C37BD465DF8047B704780B485B000AF66
:1019980078600B467B807B685B69FB607A88FB68B4
:1019A80013401A04FB68D9437B880B401A437B68B1
:1019B8009A6100BF1437BD465DF8047B704700008C
:1019C80080B584B000AF78607B68002B01D101231B
:1019D8002BE17B6893F83D30DBB2002B06D17B68A6
:1019E800002283F83C207868FFF7F2FA7B6824220B
:1019F80083F83D207B681B681A687B681B6822F0A7
:101A080001021A607B681B681A687B681B6842F4CD
:101A180000421A607B681B681A687B681B6822F49E
:101A280000421A6004F0B8FBF8607B685B68814A82
:101A3800934207D8FB68804A934294BF012300234E
:101A4800DBB206E0FB687D4A934294BF0123002382
:101A5800DBB2002B01D00123E7E0FB68784AA2FB48
:101A680003239B0CBB607B681B685B6823F03F010A
:101A78007B681B68BA680A435A607B681B681B6AE4
:101A880023F03F017B685B686A4A934202D8BB68CF
:101A9800013309E0BB684FF4967202FB03F3694A0D
:101AA800A2FB03239B0901337A6812680B43136274
:101AB8007B681B68DB6923F44F4222F0FF027B68D6
:101AC8005B685C498B4219D8FB68591E7B685B6868
:101AD8005B00B1FBF3F3591C40F6FC730B40002B81
:101AE8000AD0FB68591E7B685B685B00B1FBF3F3A7
:101AF8000133C3F30B0351E004234FE07B689B6879
:101B0800002B11D1FB68581E7B6859680B465B0097
:101B18000B44B0FBF3F30133C3F30B03002B0CBFEF
:101B280001230023DBB212E0FB68581E7B6859686A
:101B38000B469B000B4499000B44B0FBF3F30133B5
:101B4800C3F30B03002B0CBF01230023DBB2002BD4
:101B580001D0012322E07B689B68002B0ED1FB6833
:101B6800581E7B6859680B465B000B44B0FBF3F3C7
:101B78000133C3F30B0343F400430FE0FB68581E23
:101B88007B6859680B469B000B4499000B44B0FBDB
:101B9800F3F30133C3F30B0343F440437968096853
:101BA8001343CB617B681B681B6823F0C0017B680B
:101BB800DA697B681B6A1A437B681B680A431A60E8
:101BC8007B681B689B6823F4034323F0FF037A6850
:101BD80011697A68D26811437A6812680B43936076
:101BE8007B681B68DB6823F0FF017B685A697B68A8
:101BF8009B691A437B681B680A43DA607B681B6829
:101C08001A687B681B6842F001021A607B68002230
:101C18001A647B68202283F83D207B6800221A63BF
:101C28007B68002283F83E20002318461037BD4603
:101C380080BD00BFA08601007F841E00FF083D0014
:101C480083DE1B43D34D621080B483B000AF78604D
:101C58007B681B685B6903F08003802B03D17B687A
:101C68001B6800221A6100BF0C37BD465DF8047B73
:101C78007047000080B588B002AFF860084611468A
:101C88001A4603467B810B463B811346FB80FFF7D0
:101C980055FB7861FB6893F83D30DBB2202B40F0B0
:101CA800D9807B690093192301226D49F86802F0F5
:101CB8002DF90346002B01D00223CCE0FB6893F8F2
:101CC8003C30012B01D10223C5E0FB68012283F8D7
:101CD8003C20FB681B681B6803F00103012B07D03D
:101CE800FB681B681A68FB681B6842F001021A60EF
:101CF800FB681B681A68FB681B6822F400621A609C
:101D0800FB68212283F83D20FB68402283F83E20AF
:101D1800FB6800221A64FB683A6A5A62FB68BA8C4C
:101D28005A85FB685B8D9AB2FB681A85FB684D4A39
:101D3800DA62F8883A8979897B690193BB6A0093EA
:101D48000346F86801F0BCFE0346002B52D001237D
:101D580081E07A69B96AF86802F0F2F90346002B63
:101D68000DD0FB681B6C042B07D1FB681B681A6835
:101D7800FB681B6842F400721A6001236BE0FB6881
:101D88005B6A1A78FB681B681A61FB685B6A5A1CF5
:101D9800FB685A62FB681B8D013B9AB2FB681A8587
:101DA800FB685B8D9BB2013B9AB2FB685A85FB6866
:101DB8001B685B6903F00403042B1BD1FB681B8DB4
:101DC800002B17D0FB685B6A1A78FB681B681A61DE
:101DD800FB685B6A5A1CFB685A62FB681B8D013BF7
:101DE8009AB2FB681A85FB685B8D9BB2013B9AB27D
:101DF800FB685A85FB681B8D002BAAD17A69B96AE2
:101E0800F86802F0E5F90346002B0DD0FB681B6C5F
:101E1800042B07D1FB681B681A68FB681B6842F42F
:101E280000721A60012316E0FB681B681A68FB68D9
:101E38001B6842F400721A60FB68202283F83D2078
:101E4800FB68002283F83E20FB68002283F83C20D0
:101E5800002300E0022318461837BD4680BD00BFA6
:101E6800020010000000FFFF80B58CB002AFF860E0
:101E7800084611461A4603467B810B463B811346AA
:101E8800FB80FFF75BFA7862FB6893F83D30DBB2C2
:101E9800202B40F014827B6A0093192301227B498E
:101EA800F86802F033F80346002B01D0022307E25A
:101EB800FB6893F83C30012B01D1022300E2FB6858
:101EC800012283F83C20FB681B681B6803F00103B0
:101ED800012B07D0FB681B681A68FB681B6842F077
:101EE80001021A60FB681B681A68FB681B6822F409
:101EF80000621A60FB68222283F83D20FB684022BA
:101F080083F83E20FB6800221A64FB683A6B5A6229
:101F1800FB68BA8E5A85FB685B8D9AB2FB681A8596
:101F2800FB685B4ADA62F8883A8979897B6A0193A7
:101F3800BB6B00930346F86801F058FE0346002B7C
:101F480001D00123BCE1FB681B8D002B13D10023BA
:101F58003B62FB681B685B693B62FB681B689B69AB
:101F68003B623B6AFB681B681A68FB681B6842F4A3
:101F780000721A6090E1FB681B8D012B1BD1FB6876
:101F88001B681A68FB681B6822F480621A600023C9
:101F9800FB61FB681B685B69FB61FB681B689B69ED
:101FA800FB61FB69FB681B681A68FB681B6842F4E5
:101FB80000721A6070E1FB681B8D022B1BD1FB6855
:101FC8001B681A68FB681B6822F480621A60FB6849
:101FD8001B681A68FB681B6842F400621A600023D9
:101FE800BB61FB681B685B69BB61FB681B689B691D
:101FF800BB61BB6950E100237B61FB681B685B69BF
:102008007B61FB681B689B697B617B6944E1FB68BA
:102018001B8D032B00F2F180FB681B8D012B23D154
:102028007A6AB96BF86802F04DF90346002B01D0C3
:10203800012345E1FB681B681A69FB685B6AD2B239
:102048001A70FB685B6A5A1CFB685A62FB681B8D36
:10205800013B9AB2FB681A85FB685B8D9BB2013B1A
:102068009AB2FB685A8517E1FB681B8D022B4ED18B
:102078007B6A0093BB6B00220649F86801F046FFB3
:102088000346002B08D001231AE100BF020010000C
:102098000000FFFF04000100FB681B681A68FB686A
:1020A8001B6842F400721A60FB681B681A69FB68B7
:1020B8005B6AD2B21A70FB685B6A5A1CFB685A6288
:1020C800FB681B8D013B9AB2FB681A85FB685B8D28
:1020D8009BB2013B9AB2FB685A85FB681B681A6978
:1020E800FB685B6AD2B21A70FB685B6A5A1CFB68B1
:1020F8005A62FB681B8D013B9AB2FB681A85FB6824
:102108005B8D9BB2013B9AB2FB685A85C4E07B6A3F
:102118000093BB6B00226C49F86801F0F7FE034698
:10212800002B01D00123CBE0FB681B681A68FB6811
:102138001B6822F480621A60FB681B681A69FB68D6
:102148005B6AD2B21A70FB685B6A5A1CFB685A62F7
:10215800FB681B8D013B9AB2FB681A85FB685B8D97
:102168009BB2013B9AB2FB685A857B6A0093BB6BB2
:1021780000225549F86801F0C9FE0346002B01D03A
:1021880001239DE0FB681B681A68FB681B6842F422
:1021980000721A60FB681B681A69FB685B6AD2B236
:1021A8001A70FB685B6A5A1CFB685A62FB681B8DD5
:1021B800013B9AB2FB681A85FB685B8D9BB2013BB9
:1021C8009AB2FB685A85FB681B681A69FB685B6AE8
:1021D800D2B21A70FB685B6A5A1CFB685A62FB68C9
:1021E8001B8D013B9AB2FB681A85FB685B8D9BB21D
:1021F800013B9AB2FB685A854EE07A6AB96BF86877
:1022080002F060F80346002B01D0012358E0FB6878
:102218001B681A69FB685B6AD2B21A70FB685B6A52
:102228005A1CFB685A62FB681B8D013B9AB2FB681B
:102238001A85FB685B8D9BB2013B9AB2FB685A8595
:10224800FB681B685B6903F00403042B24D1FB685B
:102258001B8D032B07D1FB681B681A68FB681B687A
:1022680022F480621A60FB681B681A69FB685B6A63
:10227800D2B21A70FB685B6A5A1CFB685A62FB6828
:102288001B8D013B9AB2FB681A85FB685B8D9BB27C
:10229800013B9AB2FB685A85FB681B8D002B7FF4C3
:1022A800B6AEFB68202283F83D20FB68002283F845
:1022B8003E20FB68002283F83C20002300E0022334
:1022C80018462837BD4680BD0400010080B58AB095
:1022D80002AFF8607A603B600B467B81FFF72EF80F
:1022E800F8610023BB61FB6893F83D30DBB2202B1B
:1022F80040F01181FB690093192301228849F8688D
:1023080001F004FE0346002B01D0022304E1FB6820
:1023180093F83C30012B01D10223FDE0FB68012238
:1023280083F83C20FB681B681B6803F00103012B42
:1023380007D0FB681B681A68FB681B6842F001023B
:102348001A60FB681B681A68FB681B6822F4006245
:102358001A60FB68242283F83D20FB6800221A6477
:10236800FB68704ADA62FB681B681A68FB681B68BE
:1023780042F480721A60FB6900933B6800224FF0B8
:102388000111F86801F0C2FD0346002B0DD0FB686F
:102398001B681B6803F48073B3F5807F03D1FB6867
:1023A8004FF400721A640323B6E07B89DBB21A4645
:1023B800FB681B6802F0FE021A61FEF7BFFFF861B6
:1023C800FB681B685B6903F00203022B0CBF012347
:1023D8000023DBB2FB75FB681B685B6903F4806351
:1023E800B3F5806F0CBF01230023DBB2BB7525E07A
:1023F800FEF7A4FF0246FB69D31A3A689A4202D351
:102408003B68002B03D1FB68A02283F83D20FB68C2
:102418001B685B6903F00203022B0CBF0123002336
:10242800DBB2FB75FB681B685B6903F48063B3F57B
:10243800806F0CBF01230023DBB2BB75FB6893F8E8
:102448003D30DBB2A02B05D0FB7D002B02D1BB7D3C
:10245800002BCDD0FB68202283F83D20FB681B6849
:102468005B6903F00203022B29D1FB681B681A6819
:10247800FB681B6842F400721A6000233B61FB682A
:102488001B685B693B61FB681B689B693B613B6937
:10249800FB690093192301222149F86801F036FDF0
:1024A8000346002B01D0012336E0FB68202283F885
:1024B8003D20FB68002283F83C2000232CE0FB68C9
:1024C8001B681A68FB681B6842F400721A60FB6894
:1024D8001B686FF480625A61FB690093192301221B
:1024E8000F49F86801F012FD0346002B01D00123C3
:1024F80012E0BB690133BB61BA697B689A42FFF499
:1025080032AFFB68202283F83D20FB68002283F865
:102518003C20012300E0022318462037BD4680BD39
:10252800020010000000FFFF80B588B000AF78609F
:102538000023BB617B681B685B687B617B68DB6A27
:102548003B617B6893F83E30FB737B6893F83D30C2
:10255800BB73FB7B102B03D0FB7B402B40F0B1807F
:102568007B681B689B69BB617B681B685B69FB6157
:10257800FB6903F00103002B0DD13B69B3F52A0F6A
:1025880003D03B69B3F12A4F01D1012300E00023B6
:10259800012B00F01481FB6903F00103002B0BD021
:1025A8007B6903F40073002B06D0786801F016FFEE
:1025B800786800F0DBFC83E0FB6903F00803002B7C
:1025C80008D07B6903F40073002B03D0786800F00F
:1025D80053FD75E0FB6903F00203002B08D07B690B
:1025E80003F40073002B03D0786800F06FFD67E0F8
:1025F800BB6903F00403002B36D07B681B685B685B
:1026080003F40063B3F5006F00F0DB80FB6903F0AF
:102618008003002B0DD07B6903F48063002B08D066
:10262800FB6903F00403002B03D1786800F037F945
:1026380046E0FB6903F00403002B00F0C2807B69CD
:1026480003F40073002B00F0BC80BB7B212B03D16B
:10265800786800F0C0F9B4E0FB7B402B40F0B18013
:10266800786800F02EFAACE07B681B685B6803F4BE
:102678000063B3F5006F00F0A480FB6903F040032A
:10268800002B0DD07B6903F48063002B08D0FB6915
:1026980003F00403002B03D1786800F0AAFA0FE0D6
:1026A800FB6903F00403002B00F08B807B6903F4C3
:1026B8000073002B00F08580786800F062FB80E0F2
:1026C8007FE07B681B6C002B04D07B681B685B6910
:1026D800FB6107E07B681B689B69BB617B681B68C3
:1026E8005B69FB61FB6903F00203002B11D07B6976
:1026F80003F40073002B0CD07B681B6C002B03D0F9
:102708007B681B689B69BB61B969786800F02DFF1D
:102718005AE0FB6903F01003002B08D07B6903F42F
:102728000073002B03D0786800F068FF4CE0BB7B97
:10273800212B02D0BB7B292B20D1FB6903F080031E
:10274800002B0DD07B6903F48063002B08D0FB6954
:1027580003F00403002B03D1786800F048FE32E050
:10276800FB6903F00403002B2DD07B6903F400738D
:10277800002B28D0786800F077FE24E0FB6903F08E
:102788004003002B0DD07B6903F48063002B08D035
:10279800FB6903F00403002B03D1786800F085FE81
:1027A80012E0FB6903F00403002B0DD07B6903F4EE
:1027B8000073002B08D0786800F0B5FE04E000BF75
:1027C80002E000BF00E000BF2037BD4680BD80B4F6
:1027D80083B000AF786000BF0C37BD465DF8047B5E
:1027E800704780B483B000AF786000BF0C37BD4637
:1027F8005DF8047B704780B483B000AF786000BF99
:102808000C37BD465DF8047B704780B483B000AFD9
:10281800786000BF0C37BD465DF8047B704780B414
:1028280083B000AF78600B46FB7013463B8000BF57
:102838000C37BD465DF8047B704780B483B000AFA9
:10284800786000BF0C37BD465DF8047B704780B4E4
:1028580083B000AF786000BF0C37BD465DF8047BDD
:10286800704780B483B000AF786000BF0C37BD46B6
:102878005DF8047B704780B483B000AF786000BF18
:102888000C37BD465DF8047B704780B483B000AF59
:10289800786000BF0C37BD465DF8047B704780B593
:1028A80084B000AF78607B6893F83D30FB737B6839
:1028B80093F83E30BB737B68DB6ABB607B681B8D1B
:1028C800002B50D1FB7B212B4DD1BB68082B1DD091
:1028D800BB68202B1AD0BB6813F5803F16D07B68E5
:1028E8001B685A687B681B6822F4E0625A607B6840
:1028F80011221A637B68002283F83E207B6820221D
:1029080083F83D207868FFF762FF60E07B681B680A
:102918005A687B681B6822F4E0625A607B681B680F
:102928001A687B681B6842F400721A607B68002290
:102938001A637B68202283F83D207B6893F83E3039
:10294800DBB2402B07D17B68002283F83E207868F1
:10295800FFF77DFF3BE07B68002283F83E20786824
:10296800FFF735FF33E0FB7B212B05D0BB7B402BEA
:102978002DD1FB7B222B2AD17B685B8D9BB2002B50
:1029880008D17B681B685A687B681B6822F48062E0
:102998005A601CE07B6893F83E30DBB2402B03D1D1
:1029A800786800F08EF812E07B685B6A1A787B68BA
:1029B8001B681A617B685B6A5A1C7B685A627B6871
:1029C8005B8D9BB2013B9AB27B685A85FFE700BFDB
:1029D8001037BD4680BD80B584B000AF78607B6895
:1029E800DB6AFB607B6893F83D30DBB2212B64D156
:1029F8007B685B8D9BB2002B12D07B685B6A1A7870
:102A08007B681B681A617B685B6A5A1C7B685A6220
:102A18007B685B8D9BB2013B9AB27B685A854CE020
:102A2800FB68082B1DD0FB68202B1AD0FB6813F518
:102A3800803F16D07B681B685A687B681B6822F445
:102A4800E0625A607B6811221A637B68002283F86F
:102A58003E207B68202283F83D207868FFF7B7FE88
:102A68002BE07B681B685A687B681B6822F4E0626D
:102A78005A607B681B681A687B681B6842F400729E
:102A88001A607B6800221A637B68202283F83D2045
:102A98007B6893F83E30DBB2402B07D17B6800227D
:102AA80083F83E207868FFF7D2FE06E07B680022B4
:102AB80083F83E207868FFF78AFE00BF1037BD46CE
:102AC80080BD80B584B000AF78607B6893F83D30F6
:102AD800FB737B681B6D002B1DD17B68DB6C012BA6
:102AE8000BD17B689B6CDAB27B681B681A617B68C8
:102AF8001B6D9A1C7B681A6577E07B689B6C9BB2A0
:102B08001B12DAB27B681B681A617B681B6D5A1C42
:102B18007B681A6569E07B681B6D012B0BD17B68AC
:102B28009B6CDAB27B681B681A617B681B6D5A1C48
:102B38007B681A6559E07B681B6D022B52D1FB7BC1
:102B4800222B0DD17B681B681A687B681B6842F4CE
:102B580080721A607B681B6D5A1C7B681A6544E09A
:102B68007B685B8D9BB2002B15D0FB7B212B12D190
:102B78007B685B6A1A787B681B681A617B685B6A8A
:102B88005A1C7B685A627B685B8D9BB2013B9AB288
:102B98007B685A8529E07B685B8D9BB2002B24D12A
:102BA800FB7B212B21D17B681B685A687B681B68DB
:102BB80022F4E0625A607B681B681A687B681B68AD
:102BC80042F400721A607B6800221A637B68202234
:102BD80083F83D207B68002283F83E207868FFF761
:102BE80036FE02E07868FFF72FF800BF1037BD46C1
:102BF80080BD80B584B000AF78607B6893F83D30C5
:102C0800DBB2222B40F0B9807B68DB6AFB607B6813
:102C18005B8D9BB2BB60BB68032B21D97B681B68AB
:102C28001A697B685B6AD2B21A707B685B6A5A1C45
:102C38007B685A627B685B8D9BB2013B9AB27B686A
:102C48005A857B685B8D9BB2032B40F096807B682E
:102C58001B685A687B681B6822F480625A608CE0A3
:102C68007B68DB6A022B7FD0BB68012B02D0BB6874
:102C7800002B79D1786801F0F3FA0346002B4CD188
:102C88007B681B681A687B681B6822F480621A607C
:102C98007B681B685A687B681B6822F4E0625A608C
:102CA8007B681B681A697B685B6AD2B21A707B689A
:102CB8005B6A5A1C7B685A627B685B8D9BB2013BDE
:102CC8009AB27B685A857B68202283F83D207B680E
:102CD80093F83E30DBB2402B0AD17B68002283F8A0
:102CE8003E207B6800221A637868FFF7BAFD44E04B
:102CF8007B68002283F83E20FB68082B02D0FB6823
:102D0800202B03D17B6800221A6302E07B68122221
:102D18001A637868FFF765FD2FE07B681B685A68BF
:102D28007B681B6822F4E0625A607B681B681A693A
:102D38007B685B6AD2B21A707B685B6A5A1C7B68D4
:102D48005A627B685B8D9BB2013B9AB27B685A855D
:102D58007B68202283F83D207B68002283F83E2090
:102D68007868FFF788FD08E07B681B685A687B680D
:102D78001B6822F480625A60FFE700BF1037BD4627
:102D880080BD80B584B000AF78607B68DB6AFB608B
:102D98007B685B8D9BB2042B1BD17B681B685A68D0
:102DA8007B681B6822F480625A607B681B681A691A
:102DB8007B685B6AD2B21A707B685B6A5A1C7B6854
:102DC8005A627B685B8D9BB2013B9AB27B685A85DD
:102DD800C8E07B685B8D9BB2032B29D17B681B689D
:102DE8005A687B681B6822F480625A60FB68042B6F
:102DF8000AD0FB68022B07D07B681B681A687B68BF
:102E08001B6822F480621A607B681B681A697B68F9
:102E18005B6AD2B21A707B685B6A5A1C7B685A621A
:102E28007B685B8D9BB2013B9AB27B685A8599E0BF
:102E38007B685B8D9BB2022B40F08180FB68012B85
:102E480002D0FB68102B08D17B681B681A687B6866
:102E58001B6822F480621A6019E0FB68042B02D018
:102E6800FB68022B08D17B681B681A687B681B68A3
:102E780042F480621A600AE0FB68102B07D07B6876
:102E88001B681A687B681B6842F400721A607B68CA
:102E98001B681A697B685B6AD2B21A707B685B6AC6
:102EA8005A1C7B685A627B685B8D9BB2013B9AB265
:102EB8007B685A857B681B681A697B685B6AD2B233
:102EC8001A707B685B6A5A1C7B685A627B685B8DE8
:102ED8009BB2013B9AB27B685A857B681B685A682B
:102EE8007B681B6822F440725A607B68202283F852
:102EF8003D207B6893F83E30DBB2402B0AD17B68DB
:102F0800002283F83E207B6800221A637868FFF766
:102F1800A8FC27E07B68002283F83E20FB68082B8A
:102F280002D0FB68202B03D17B6800221A6302E0E1
:102F38007B6812221A637868FFF753FC12E07B68FB
:102F48001B681A697B685B6AD2B21A707B685B6A15
:102F58005A1C7B685A627B685B8D9BB2013B9AB2B4
:102F68007B685A8500BF1037BD4680BD80B483B0EA
:102F780000AF78607B6893F83E30DBB2402B17D106
:102F88007B681B6D002B09D17B685B6CDBB21A4632
:102F98007B681B6802F0FE021A6167E07B685B6C65
:102FA800DBB243F00103DAB27B681B681A615DE0AB
:102FB8007B681B69B3F5804F33D17B6893F83D304C
:102FC800DBB2212B09D17B685B6CDBB21A467B68CC
:102FD8001B6802F0FE021A6108E07B685B6CDBB2DA
:102FE80043F00103DAB27B681B681A617B685B6B8C
:102FF800002B04D07B685B6BDB6B002B08D17B68F4
:103008009B6B002B32D07B689B6BDB6B002B2DD02E
:103018007B681B685A687B681B6842F400625A60C8
:1030280024E07B681B6D002B0ED17B685B6C9BB228
:10303800DB11DBB203F00603DBB263F00F03DAB295
:103048007B681B681A6111E07B681B6D012B0DD131
:103058007B685B6C9BB2DB11DBB203F00603DBB26F
:1030680063F00E03DAB27B681B681A6100BF0C3785
:10307800BD465DF8047B704780B483B000AF7860CC
:103088007B685B6CDAB27B681B681A617B685B6B78
:10309800002B04D07B685B6BDB6B002B08D17B6853
:1030A8009B6B002B0CD07B689B6BDB6B002B07D0DA
:1030B8007B681B685A687B681B6842F400625A6028
:1030C80000BF0C37BD465DF8047B704780B491B0F3
:1030D80000AF78607B6893F83E3087F83F307B68B4
:1030E800DB6ABB637B681B6B7B637B6893F83D3053
:1030F800DBB2222B40F069817B681B6D002B0FD15E
:1031080097F83F30402B0BD100233B637B681B684B
:103118005B693B637B681B689B693B633B6B60E156
:103128007B681B6D002B1DD17B681B69B3F5404F75
:1031380018D10023FB627B681B685B69FB627B68B4
:103148001B689B69FB62FB6A7B681B681A687B6863
:103158001B6842F480721A607B681B6D5A1C7B687E
:103168001A653EE17B685B8D9BB2002B13D100236F
:10317800BB627B681B685B69BB627B681B689B6979
:10318800BB62BB6A7B681B681A687B681B6842F471
:1031980000721A6015E17B685B8D9BB2012B40F0D1
:1031A8008A80BB6B13F5803F37D17B681B681A6830
:1031B8007B681B6822F480621A607B681B685B6806
:1031C80003F40063B3F5006F13D17B681B681A68BA
:1031D8007B681B6822F480621A6000237B627B682C
:1031E8001B685B697B627B681B689B697B627B6A87
:1031F800E7E000233B627B681B685B693B627B6896
:103208001B689B693B623B6A7B681B681A687B6822
:103218001B6842F400721A60D3E0BB6B082B2ED0F7
:10322800BB6B202B2BD07B6B122B02D1BB6B012BE2
:1032380025D1BB6B042B0ED0BB6B022B0BD0BB6B09
:10324800102B08D07B681B681A687B681B6822F4FF
:1032580080621A6007E07B681B681A687B681B68D5
:1032680042F480621A600023FB617B681B685B691B
:10327800FB617B681B689B69FB61FB69A1E07B685C
:103288001B681A687B681B6822F480621A60002336
:10329800BB617B681B685B69BB617B681B689B695A
:1032A800BB61BB697B681B681A687B681B6842F452
:1032B80000721A6085E07B685B8D9BB2022B4DD152
:1032C800BB6B042B16D0BB6B022B13D0BB6B102B24
:1032D80010D07B681B681A687B681B6822F48062C0
:1032E8001A607B681B681A687B681B6842F4006276
:1032F8001A6007E07B681B681A687B681B6842F4E1
:1033080080621A607B681B685B6803F40063B3F52E
:10331800006F17D1BB6B13F5803F0BD0BB6B012B34
:1033280008D0BB6B082B05D0BB6B102B02D0BB6B36
:10333800202B07D17B681B685A687B681B6842F49E
:1033480080525A6000237B617B681B685B697B61E4
:103358007B681B689B697B617B6932E07B681B68C3
:103368001A687B681B6842F480621A607B681B6875
:103378005B6803F40063B3F5006F17D1BB6B13F5FB
:10338800803F0BD0BB6B012B08D0BB6B082B05D043
:10339800BB6B102B02D0BB6B202B07D17B681B6843
:1033A8005A687B681B6842F480525A6000233B616C
:1033B8007B681B685B693B617B681B689B693B6139
:1033C8003B697B6800221A650BE00023FB607B6881
:1033D8001B685B69FB607B681B689B69FB60FB681B
:1033E800FFE700BF4437BD465DF8047B704780B5F2
:1033F80084B000AF78607B6893F83D30FB737B68DE
:103408005B8D9BB2002B2BD07B685B6A1A787B683C
:103418001B681A617B685B6A5A1C7B685A627B6806
:103428005B8D9BB2013B9AB27B685A857B685B8D4A
:103438009BB2002B14D1FB7B292B11D17B681B6815
:103448005A687B681B6822F480625A607B68212274
:103458001A637B68282283F83D207868FFF7CBF948
:1034680000BF1037BD4680BD80B483B000AF786020
:103478007B685B8D9BB2002B11D07B685B6A1A78E6
:103488007B681B681A617B685B6A5A1C7B685A6296
:103498007B685B8D9BB2013B9AB27B685A8500BF03
:1034A8000C37BD465DF8047B704780B584B000AF2B
:1034B80078607B6893F83D30FB737B685B8D9BB2CB
:1034C800002B2CD07B681B681A697B685B6AD2B2B8
:1034D8001A707B685B6A5A1C7B685A627B685B8DD2
:1034E8009BB2013B9AB27B685A857B685B8D9BB225
:1034F800002B14D1FB7B2A2B11D17B681B685A68DF
:103508007B681B6822F480625A607B6822221A63F7
:103518007B68282283F83D207868FFF776F900BF9A
:103528001037BD4680BD80B483B000AF78607B683B
:103538005B8D9BB2002B12D07B681B681A697B6875
:103548005B6AD2B21A707B685B6A5A1C7B685A62E3
:103558007B685B8D9BB2013B9AB27B685A8500BF42
:103568000C37BD465DF8047B704780B584B000AF6A
:10357800786039600023FB737B6893F83D30DBB2D9
:1035880003F02803282B25D17B681B685A687B68C1
:103598001B6822F480625A603B6803F00403002B26
:1035A80001D10123FB733B6803F08003002B03D197
:1035B8007B68DB68BB8102E07B689B69BB817B68B9
:1035C800002283F83C20BA89FB7B19467868FFF70C
:1035D80026F90EE00023BB607B681B685B69BB6053
:1035E8007B681B689B69BB60BB687B68002283F8AB
:1035F8003C2000BF1037BD4680BD000080B584B0B8
:1036080000AF78607B6893F83D30FB737B681B687C
:103618005A687B681B6822F4E0625A600023BB602A
:103628007B681B685B69BB607B681B681A687B6882
:103638001B6842F001021A60BB687B681B681A6845
:103648007B681B6822F480621A607B681B685B6871
:1036580003F40063B3F5006F72D1FB7B222B02D019
:10366800FB7B2A2B35D17B689B6B1B685B689AB206
:103678007B685A857B685B8D9BB2002B05D07B6885
:103688001B6C43F004027B681A647B681B685A68E9
:103698007B681B6822F400625A607B689B6B184643
:1036A800FDF7AFFF0346012B49D07B689B6B694A46
:1036B8001A657B689B6B1846FDF781FF0346002B54
:1036C8003DD07B689B6B1B6D7A68926B1046984760
:1036D80035E07B685B6B1B685B689AB27B685A85D0
:1036E8007B685B8D9BB2002B05D07B681B6C43F01D
:1036F80004027B681A647B681B685A687B681B68CD
:1037080022F400625A607B685B6B1846FDF779FF0C
:103718000346012B14D07B685B6B4E4A1A657B68A5
:103728005B6B1846FDF74BFF0346002B08D07B6800
:103738005B6B1B6D7A68526B1046984700E000BFC0
:103748007B685B8D9BB2002B3ED07B681B685B69F6
:1037580003F00403042B12D17B681B681A697B6889
:103768005B6AD2B21A707B685B6A5A1C7B685A62C1
:103778007B685B8D9BB2013B9AB27B685A857B68FC
:103788001B685B6903F04003402B12D17B681B6800
:103798001A697B685B6AD2B21A707B685B6A5A1CCA
:1037A8007B685A627B685B8D9BB2013B9AB27B68EF
:1037B8005A857B685B8D9BB2002B05D07B681B6CA0
:1037C80043F004027B681A647B681B6C002B03D0EF
:1037D800786800F043F839E0FB7B2A2B09D17B6835
:1037E80000221A637B68282283F83D207868FFF757
:1037F8000CF87B6893F83D30DBB2282B11D17B683D
:10380800154ADA627B6800221A637B68202283F8F3
:103818003D207B68002283F83E207868FFF70DF88A
:1038280014E07B681B6B222B02D0FB7B222B0DD173
:103838007B6800221A637B68202283F83D207B681E
:10384800002283F83E207868FEF7DFFF00BF1037BC
:10385800BD4680BDC53D00080000FFFF80B584B0AF
:1038680000AF78607B6893F83D30FB737B6893F812
:103878003E30BB73BB7B102B02D0BB7B402B0AD1E5
:10388800FB7B222B07D17B681B681A687B681B6847
:1038980022F400621A60FB7B03F02803282B07D16F
:1038A8007B6800221A637B68282283F83D2015E094
:1038B8007B681B685B6803F40063B3F5006F0AD08C
:1038C800FB7B602B07D07B68202283F83D207B6838
:1038D800002283F83E207B6800221A637B681B68FD
:1038E8005B6803F40063B3F5006F62D17B681B6803
:1038F8005A687B681B6822F400625A607B685B6BBD
:1039080093F83530DBB2012B20D07B685B6B6A4AB9
:103918001A657B685B6B1846FDF751FE0346002B62
:1039280000F089807B681B681A687B681B6822F036
:1039380001021A607B68202283F83D207B685B6B5C
:103948001B6D7A68526B1046984774E07B689B6BD6
:10395800594A1A657B689B6B1846FDF730FE03468B
:10396800002B68D07B681B685B6903F04003402B21
:103978000BD17B681B681A697B685B6AD2B21A70C4
:103988007B685B6A5A1C7B685A627B681B681A688A
:103998007B681B6822F001021A607B68202283F88A
:1039A8003D207B689B6B1B6D7A68926B104698472D
:1039B80041E07B6893F83D30DBB2602B25D17B6812
:1039C800202283F83D207B6800221A647B681B68EC
:1039D8005B6903F04003402B0BD17B681B681A69B5
:1039E8007B685B6AD2B21A707B685B6A5A1C7B6818
:1039F8005A627B681B681A687B681B6822F00102A0
:103A08001A607868FEF741FF15E07B681B685B6900
:103A180003F04003402B0BD17B681B681A697B6855
:103A28005B6AD2B21A707B685B6A5A1C7B685A62FE
:103A38007868FEF720FF7B681B6CBB60BB6803F0EF
:103A48000103002B0ED1BB6803F00203002B09D140
:103A5800BB6803F00403002B04D1BB6803F0080320
:103A6800002B07D07B681B685A687B681B6822F4A8
:103A7800E0625A607B6893F83D30FB737B681B6C8F
:103A880003F00403042B13D1FB7B282B10D17B6894
:103A98000A4ADA627B6800221A637B68202283F86C
:103AA8003D207B68002283F83E207868FEF7C5FE3B
:103AB80000BF1037BD4680BDC53D00080000FFFFB0
:103AC80080B588B002AFF860084611461A4603462A
:103AD8007B810B463B811346FB80FB681B681A6899
:103AE800FB681B6842F480721A607B6A00933B6A29
:103AF80000224FF00111F86800F008FA0346002B85
:103B08000DD0FB681B681B6803F48073B3F5807FD6
:103B180003D1FB684FF400721A6403235FE07B89CA
:103B2800DBB21A46FB681B6802F0FE021A617B6A68
:103B38003A6A2D49F86800F063FA0346002B01D071
:103B480001234CE000237B61FB681B685B697B6198
:103B5800FB681B689B697B617B697A6A396AF868CC
:103B680000F0EEFA0346002B0DD0FB681B6C042B0B
:103B780007D1FB681B681A68FB681B6842F400726F
:103B88001A6001232BE0FB88012B05D13B89DAB2AF
:103B9800FB681B681A6121E03B891B0A9BB2DAB2F9
:103BA800FB681B681A617A6A396AF86800F0C8FA13
:103BB8000346002B0DD0FB681B6C042B07D1FB6858
:103BC8001B681A68FB681B6842F400721A600123BC
:103BD80005E03B89DAB2FB681B681A6100231846C6
:103BE8001837BD4680BD00BF0200010080B588B00F
:103BF80002AFF860084611461A4603467B810B4619
:103C08003B811346FB80FB681B681A68FB681B68CE
:103C180042F480621A60FB681B681A68FB681B68BC
:103C280042F480721A607B6A00933B6A00224FF06C
:103C38000111F86800F06AF90346002B0DD0FB6803
:103C48001B681B6803F48073B3F5807F03D1FB689E
:103C58004FF400721A640323AAE07B89DBB21A4688
:103C6800FB681B6802F0FE021A617B6A3A6A5249D5
:103C7800F86800F0C5F90346002B01D0012397E04E
:103C880000237B61FB681B685B697B61FB681B68C1
:103C98009B697B617B697A6A396AF86800F050FA37
:103CA8000346002B0DD0FB681B6C042B07D1FB6867
:103CB8001B681A68FB681B6842F400721A600123CB
:103CC80076E0FB88012B05D13B89DAB2FB681B68DB
:103CD8001A6121E03B891B0A9BB2DAB2FB681B68B8
:103CE8001A617A6A396AF86800F02AFA0346002BE2
:103CF8000DD0FB681B6C042B07D1FB681B681A6886
:103D0800FB681B6842F400721A60012350E03B898B
:103D1800DAB2FB681B681A617A6A396AF86800F0D7
:103D28000FFA0346002B0DD0FB681B6C042B07D140
:103D3800FB681B681A68FB681B6842F400721A600B
:103D4800012335E0FB681B681A68FB681B6842F4AE
:103D580080721A607B6A00933B6A00224FF001115F
:103D6800F86800F0D3F80346002B0DD0FB681B68F9
:103D78001B6803F48073B3F5807F03D1FB684FF4AD
:103D880000721A64032313E07B89DBB243F001035A
:103D9800DAB2FB681B681A617B6A3A6A0649F868F6
:103DA80000F02EF90346002B01D0012300E0002388
:103DB80018461837BD4680BD0200010080B586B0A0
:103DC80000AF78600023FB607B689B6B7B617B693D
:103DD80093F83D30FB744B4B1B68DB084A4AA2FB47
:103DE80003231A0A13469B001344DA00D31AFB6014
:103DF800FB68002B06D17B691B6C43F020027B69B2
:103E08001A640AE0FB68013BFB607B691B681B685E
:103E180003F40073B3F5007FEAD07B695B6B002B7A
:103E280003D07B695B6B0022DA637B699B6B002B99
:103E380003D07B699B6B0022DA637B691B681A6875
:103E48007B691B6822F480621A607B6900225A85AC
:103E58007B695B6B002B03D07B695B6B00221A6567
:103E68007B699B6B002B03D07B699B6B00221A65D7
:103E78007B691B681A687B691B6822F001021A605B
:103E88007B6993F83D30DBB2602B0ED17B69202231
:103E980083F83D207B69002283F83E207B6900225D
:103EA8001A647869FEF7F1FC27E0FB7C03F028032D
:103EB800282B17D17B691B681A687B691B6842F03D
:103EC80001021A607B691B681A687B691B6842F4E7
:103ED80080621A607B6900221A637B69282283F852
:103EE8003D2007E07B69202283F83D207B69002282
:103EF80083F83E207869FEF7BEFC00BF1837BD4640
:103F080080BD00BF0000002089B5F81480B584B0DA
:103F180000AFF860B9603B601346FB7148E03B684E
:103F2800B3F1FF3F44D0FDF709FA0246BB69D31A43
:103F38003A689A4202D33B68002B39D1BB681B0C04
:103F4800DBB2012B0DD1FB681B685B69DA43BB68E8
:103F580013409BB2002B0CBF01230023DBB21A468F
:103F68000CE0FB681B689B69DA43BB6813409BB293
:103F7800002B0CBF01230023DBB21A46FB799A42BF
:103F880016D1FB6800221A63FB68202283F83D20C3
:103F9800FB68002283F83E20FB681B6C43F020027C
:103FA800FB681A64FB68002283F83C20012323E0A5
:103FB800BB681B0CDBB2012B0DD1FB681B685B696E
:103FC800DA43BB6813409BB2002B0CBF01230023CC
:103FD800DBB21A460CE0FB681B689B69DA43BB68D6
:103FE80013409BB2002B0CBF01230023DBB21A46FF
:103FF800FB799A4293D0002318461037BD4680BDFE
:1040080080B584B000AFF860B9607A603B6071E059
:10401800FB681B685B6903F48063B3F5806F23D189
:10402800FB681B681A68FB681B6842F400721A6018
:10403800FB681B686FF480625A61FB6800221A6390
:10404800FB68202283F83D20FB68002283F83E208D
:10405800FB681B6C43F00402FB681A64FB680022CF
:1040680083F83C20012367E07B68B3F1FF3F41D030
:10407800FDF764F902463B68D31A7A689A4202D37C
:104088007B68002B36D1BB681B0CDBB2012B0CD133
:10409800FB681B685B69DA43BB6813409BB2002B63
:1040A80014BF01230023DBB20BE0FB681B689B698C
:1040B800DA43BB6813409BB2002B14BF01230023D3
:1040C800DBB2002B16D0FB6800221A63FB682022A3
:1040D80083F83D20FB68002283F83E20FB681B6CB8
:1040E80043F02002FB681A64FB68002283F83C2036
:1040F800012321E0BB681B0CDBB2012B0CD1FB6850
:104108001B685B69DA43BB6813409BB2002B14BF82
:1041180001230023DBB20BE0FB681B689B69DA43D1
:10412800BB6813409BB2002B14BF01230023DBB2F2
:10413800002B7FF46DAF002318461037BD4680BDB5
:1041480080B584B000AFF860B9607A6034E0F86890
:1041580000F015F90346002B01D0012334E0BB68B9
:10416800B3F1FF3F28D0FDF7E9F802467B68D31A80
:10417800BA689A4202D3BB68002B1DD1FB681B6842
:104188005B6903F08003802B16D0FB6800221A635A
:10419800FB68202283F83D20FB68002283F83E203C
:1041A800FB681B6C43F02002FB681A64FB68002262
:1041B80083F83C20012307E0FB681B685B6903F078
:1041C8008003802BC3D1002318461037BD4680BD1D
:1041D80080B584B000AFF860B9607A6034E0F86800
:1041E80000F0CDF80346002B01D0012334E0BB6872
:1041F800B3F1FF3F28D0FDF7A1F802467B68D31A38
:10420800BA689A4202D3BB68002B1DD1FB681B68B1
:104218005B6903F00403042B16D0FB6800221A63C1
:10422800FB68202283F83D20FB68002283F83E20AB
:10423800FB681B6C43F02002FB681A64FB680022D1
:1042480083F83C20012307E0FB681B685B6903F0E7
:104258000403042BC3D1002318461037BD4680BD84
:1042680080B485B000AF78600023FB60134B1B68F7
:10427800DB08134AA2FB03231A0A13469B001344C4
:10428800FB60FB68013BFB60FB68002B07D17B6888
:104298001B6C43F020027B681A64012308E07B68EA
:1042A8001B681B6803F40073B3F5007FE9D0002393
:1042B80018461437BD465DF8047B7047000000209F
:1042C80089B5F81480B584B000AFF860B9607A6039
:1042D80049E0FB681B685B6903F01003102B19D1D8
:1042E800FB681B686FF010025A61FB6800221A63B2
:1042F800FB68202283F83D20FB68002283F83E20DB
:10430800FB681A6CFB681A64FB68002283F83C207F
:10431800012330E0FDF712F802467B68D31ABA6829
:104328009A4202D3BB68002B1DD1FB681B685B69EE
:1043380003F04003402B16D0FB6800221A63FB6889
:10434800202283F83D20FB68002283F83E20FB688A
:104358001B6C43F02002FB681A64FB68002283F898
:104368003C20012307E0FB681B685B6903F04003FE
:10437800402BAED1002318461037BD4680BD80B40F
:1043880083B000AF78607B681B685B6903F4806367
:10439800B3F5806F1BD17B681B686FF480625A612C
:1043A8007B6800221A637B68202283F83D207B68A3
:1043B800002283F83E207B681B6C43F004027B6874
:1043C8001A647B68002283F83C20012300E0002364
:1043D80018460C37BD465DF8047B704780B483B03F
:1043E80000AF78607B68DB6AB3F52A0F03D17B687E
:1043F8000122DA6207E07B68DB6AB3F12A4F02D157
:104408007B680822DA6200BF0C37BD465DF8047B82
:10441800704780B586B002AF78607B68002B01D109
:10442800012301E17B681B68BB607B6893F89534C6
:10443800DBB2002B06D17B68002283F894247868CD
:1044480005F0BEFE7B68032283F89524BB68B3F1B0
:10445800A04F02D17B6800229A717B681B681846BE
:1044680002F09DFA7B6818687B681A7C8DF800203A
:1044780004330ECB02F07CF90346002B05D07B6891
:10448800022283F895240123CEE07B681B68002173
:10449800184602F095FA0346002B05D07B680222E5
:1044A80083F895240123BFE00023FB734AE0FA7BDD
:1044B80079681346DB0013449B000B441533012233
:1044C8001A70FA7B79681346DB0013449B000B448F
:1044D8001433FA7B1A70FA7BFB7B98B2796813461F
:1044E800DB0013449B000B442E3302461A80FA7BF0
:1044F80079681346DB0013449B000B4418330022F1
:104508001A70FA7B79681346DB0013449B000B444E
:104518001C3300221A60FA7B79681346DB001344C7
:104528009B000B44203300221A60FA7B79681346FB
:10453800DB0013449B000B44243300221A60FB7BEE
:104548000133FB737B681B79FA7B9A42AFD3002354
:10455800FB7344E0FA7B79681346DB0013449B0045
:104568000B4403F2552300221A70FA7B796813462C
:10457800DB0013449B000B4403F51573FA7B1A7098
:10458800FA7B79681346DB0013449B000B4403F560
:10459800167300221A70FA7B79681346DB001344FD
:1045A8009B000B4403F5177300221A60FA7B7968A5
:1045B8001346DB0013449B000B4403F518730022D9
:1045C8001A60FA7B79681346DB0013449B000B449E
:1045D80003F5197300221A60FB7B0133FB737B68B8
:1045E8001B79FA7B9A42B5D37B6818687B681A7C7A
:1045F8008DF8002004330ECB02F02EFA0346002B70
:1046080005D07B68022283F8952401230CE07B689F
:1046180000225A747B68012283F895247B681B6802
:10462800184603F078FA002318461037BD4680BDB7
:1046380080B584B000AF78607B681B68FB607B68DE
:1046480093F89434012B01D1022322E07B680122E4
:1046580083F89424FB68DB6803F04003002B09D03F
:104668007B685B7B012B05D1FB689B6B43F4803235
:10467800FB689A637B681B68184602F07FF97B68C1
:104688001B68184603F026FA7B68002283F89424F6
:10469800002318461037BD4680BD90B58DB000AFD9
:1046A80078607B681B683B623B6AFB617B681B68C0
:1046B800184603F0E4FA0346002B40F08C847B682C
:1046C8001B68184603F048FA0346002B00F0828462
:1046D800FB6903F500639B681B0AC3F30D027B6843
:1046E800C3F8D4247B681B68184603F035FA0346E0
:1046F80003F00203022B07D17B681B685A697B68A9
:104708001B6802F002025A617B681B68184603F0B6
:1047180023FA034603F01003102B61D17B681B6852
:104728009A697B681B6822F010029A613B6A1B6ACF
:10473800BB61BB6903F00F021346DB0013449B0007
:1047480003F514737A68134404337B61BB695B0C0B
:1047580003F00F03022B24D1BA6947F6F073134014
:10476800002B35D07B69D968BB691B099BB2C3F3A1
:104778000A039BB21A46386A03F05AF87B69DA686A
:10478800BB691B09C3F30A031A447B69DA607B69B6
:104798005A69BB691B09C3F30A031A447B695A6146
:1047A80016E0BB695B0C03F00F03062B10D17B6886
:1047B80003F29C4308221946386A03F039F87B69EA
:1047C8005A69BB691B09C3F30A031A447B695A6116
:1047D8007B681B689A697B681B6842F010029A61C3
:1047E8007B681B68184603F0B7F9034603F40023F7
:1047F800B3F5002F40F0A78000237B627B681B681D
:10480800184603F0BCF9B86299E0BB6A03F00103EB
:10481800002B00F08E807B681B687A6AD2B2114642
:10482800184603F0E0F938613B6903F00103002BF7
:104838000CD07B6A5A01FB69134403F530631A46AE
:1048480001239360796A786800F0A4FE3B6903F05D
:104858000803002B0CD07B6A5A01FB69134403F54B
:1048680030631A4608239360796A786800F07AFF03
:104878003B6903F01003002B08D07B6A5A01FB69DF
:10488800134403F530631A46102393603B6903F021
:104898000203002B30D03B6A5B6903F08003802B56
:1048A80009D1FB6903F500635B68FA6902F50062E8
:1048B80043F4806353607A6A1346DB0013449B0019
:1048C80003F514737A68134404337B617B69DB78DE
:1048D800012B08D17B690022DA707B6ADBB21946AA
:1048E800786805F081FD7B6A5A01FB69134403F57A
:1048F80030631A46022393603B6903F02003002BC0
:1049080008D07B6A5A01FB69134403F530631A46E1
:10491800202393603B6903F40053002B09D07B6A82
:104928005A01FB69134403F530631A464FF40053E8
:1049380093607B6A01337B62BB6A5B08BB62BB6ABC
:10494800002B7FF462AF7B681B68184603F004F9FC
:10495800034603F48023B3F5802F40F0DB807B68A7
:104968001B68184603F025F9B86200237B62CDE086
:10497800BB6A03F00103002B00F0C2807B681B6850
:104988007A6AD2B21146184603F04BF938613B698E
:1049980003F00103002B57D07B6A03F00F030122B9
:1049A80002FA03F3FB60FB6903F500635A6BFB68CB
:1049B800DB43F96901F5006113404B637B6A5A01D7
:1049C800FB69134403F510631A46012393607B685F
:1049D8009B79012B32D179687A6A1346DB0013443C
:1049E8009B000B442033196878687A6A1346DB0009
:1049F80013449B0003441C331B68194478687A6A83
:104A08001346DB0013449B000344203319607B6A80
:104A1800002B13D179687A6A1346DB0013449B0094
:104A28000B4424331B68002B08D17B6818687B680B
:104A380003F29C431A46012103F052F97B6ADBB268
:104A48001946786805F04BFC3B6903F00803002B16
:104A580008D07B6A5A01FB69134403F510631A46B0
:104A6800082393603B6903F01003002B08D07B6A8E
:104A78005A01FB69134403F510631A461023936027
:104A88003B6903F04003002B08D07B6A5A01FB699D
:104A9800134403F510631A46402393603B6903F0FF
:104AA8000203002B23D0796A386A02F039F97A6A4E
:104AB8001346DB0013449B0010337A681344043315
:104AC8007B617B69DB78012B08D17B690022DA7076
:104AD8007B6ADBB21946786805F098FC7B6A5A0154
:104AE800FB69134403F510631A46022393603B697C
:104AF80003F08003002B03D0796A786800F0BDFCCE
:104B08007B6A01337B62BB6A5B08BB62BB6A002BB2
:104B18007FF42EAF7B681B68184603F01DF8034628
:104B280003F00043B3F1004F22D1FB6903F50063A2
:104B38005B68FA6902F5006223F0010353607B6841
:104B480093F8CC34012B08D17B68002283F8CC245D
:104B58000021786800F0A4FE02E0786805F036FCD1
:104B68007B681B685A697B681B6802F000425A61BF
:104B78007B681B68184602F0EFFF034603F40063E6
:104B8800B3F5006F12D1FB6903F500639B6803F06E
:104B98000103012B02D1786805F0F2FB7B681B68E2
:104BA8005A697B681B6802F400625A617B681B685B
:104BB800184602F0D1FF034603F48053B3F5805F33
:104BC80040F0B780FB6903F500635B68FA6902F59A
:104BD800006223F0010353607B681B6810211846AC
:104BE80002F09EF80023FB6246E0FB6A5A01FB696B
:104BF800134403F510631A464FF67F339360FB6A3C
:104C08005A01FB69134403F510631B68FA6A5101E2
:104C1800FA690A4402F5106223F400131360FB6A70
:104C28005A01FB69134403F530631A464FF67F3384
:104C38009360FB6A5A01FB69134403F530631B68F0
:104C4800FA6A5101FA690A4402F5306223F4001342
:104C58001360FB6A5A01FB69134403F530631B6850
:104C6800FA6A5101FA690A4402F5306243F00063B6
:104C78001360FB6A0133FB627B681B791A46FB6A87
:104C88009342B2D3FB6903F50063DB69FA6902F565
:104C9800006243F00113D3617B68DB7B002B16D0E5
:104CA800FB6903F50063D3F88430FA6902F5006202
:104CB80043F00B03C2F88430FB6903F500635B6CB7
:104CC800FA6902F5006243F00B03536415E0FB69CF
:104CD80003F500635B69FA6902F5006243F4005367
:104CE80043F02B035361FB6903F500631B69FA6901
:104CF80002F5006243F00B031361FB6903F50063DF
:104D08001B68FA6902F5006223F4FE6313607B688E
:104D180018687B6899797B6803F29C431A4602F00D
:104D2800DFFF7B681B685A697B681B6802F4805246
:104D38005A617B681B68184602F00EFF034603F4AD
:104D48000053B3F5005F23D17B681B68184602F057
:104D5800A4FF7B681B68184602F05BF803461A46F6
:104D68007B68DA717B681C6801F00AFA01467B6887
:104D7800DB791A46204601F05FFD786805F0D7FA1E
:104D88007B681B685A697B681B6802F400525A6189
:104D98007B681B68184602F0DFFE034603F0080331
:104DA800082B0AD1786805F0B4FA7B681B685A6941
:104DB8007B681B6802F008025A617B681B6818460A
:104DC80002F0CAFE034603F08003802B23D13B6A1E
:104DD8009B6923F080023B6A9A6101237B6214E09D
:104DE80079687A6A1346DB0013449B000B4403F28C
:104DF80057231B78012B05D17B6ADBB219467868EB
:104E080000F00AFB7B6A01337B627B681B791A46D8
:104E18007B6A9342E4D37B681B68184602F09CFEC9
:104E2800034603F48013B3F5801F3CD101237B6252
:104E38002BE07B6A5A01FB69134403F510631B6876
:104E4800BB6179687A6A1346DB0013449B000B4404
:104E580018331B78012B15D1BB69002B12DA79683E
:104E68007A6A1346DB0013449B000B441733012274
:104E78001A707B6ADBB263F07F03DBB2194678688D
:104E880000F0CAFA7B6A01337B627B681B791A4699
:104E98007B6A9342CDD37B681B685A697B681B6821
:104EA80002F480125A617B681B68184602F054FEAF
:104EB800034603F40013B3F5001F56D101237B62A8
:104EC80045E07B6A5A01FB69134403F530631B68AC
:104ED800BB6179687A6A1346DB0013449B000B4474
:104EE80003F516731B78012B2ED1BB69002B2BDA27
:104EF800BB6903F480327B68D3F8D43403F0010330
:104F08009A4221D179687A6A1346DB0013449B00E0
:104F18000B4403F2572301221A703B6A9B6943F042
:104F280080023B6A9A613B6A5B6903F08003002B4D
:104F38000AD1FB6903F500635B68FA6902F5006250
:104F480043F40073536008E07B6A01337B627B683B
:104F58001B791A467B6A9342B3D37B681B685A69EC
:104F68007B681B6802F400125A617B681B6818464C
:104F780002F0F2FD034603F08043B3F1804F0AD1FB
:104F8800786805F055FA7B681B685A697B681B6866
:104F980002F080425A617B681B68184602F0DCFD0B
:104FA800034603F00403042B15D17B681B685B6878
:104FB800BB61BB6903F00403002B02D0786805F0DD
:104FC80045FA7B681B6859687B681B68BA690A439D
:104FD8005A6000E000BF3437BD4690BD80B582B04E
:104FE80000AF78600B46FB707B6893F89434012B14
:104FF80001D1022312E07B68012283F894247B68A4
:10500800FA785A747B681B68FA781146184602F0D9
:105018003BFD7B68002283F8942400231846083758
:10502800BD4680BD80B584B000AF786008461146A3
:105038001A460346FB700B463B801346BB700023A1
:10504800FB7297F90330002B0FDAFB7803F00F029D
:105058001346DB0013449B0010337A68134404336F
:10506800FB60FB6801225A700FE0FB7803F00F0227
:105078001346DB0013449B0003F514737A6813444A
:105088000433FB60FB6800225A70FB7803F00F03BF
:10509800DAB2FB681A703B88C3F30A02FB689A60AD
:1050A800FB68BA781A71FB685B78002B04D0FB6840
:1050B8001B781A46FB685A83BB78022B02D1FB681F
:1050C80000225A717B6893F89434012B01D1022392
:1050D8000EE07B68012283F894247B681B68F968DA
:1050E800184601F0BBFE7B68002283F89424FB7A03
:1050F80018461037BD4680BD80B584B000AF7860D3
:105108000B46FB7097F90330002B0FDAFB7803F09E
:105118000F021346DB0013449B0010337A681344D4
:105128000433FB60FB6801225A700FE0FB7803F040
:105138000F021346DB0013449B0003F514737A68CF
:1051480013440433FB60FB6800225A70FB7803F0B9
:105158000F03DAB2FB681A707B6893F89434012B5A
:1051680001D102230EE07B68012283F894247B6836
:105178001B68F968184601F0F9FE7B68002283F87D
:105188009424002318461037BD4680BD80B586B0EC
:1051980000AFF8607A603B600B46FB72FB7A03F065
:1051A8000F021346DB0013449B0003F51473FA68DF
:1051B800134404337B617B697A68DA607B693A68F7
:1051C8001A617B6900225A617B6900225A70FB7A56
:1051D80003F00F03DAB27B691A70FB689B79012B25
:1051E80002D17A687B69DA61FB681868FB689B7989
:1051F8001A46796901F096FF002318461837BD460C
:1052080080BD80B483B000AF78600B46FB70FB783C
:1052180003F00F0279681346DB0013449B000B442C
:1052280003F51A731B6818460C37BD465DF8047BF6
:10523800704780B586B000AFF8607A603B600B4677
:10524800FB72FB7A03F00F021346DB0013449B004A
:105258001033FA68134404337B617B697A68DA6037
:105268007B693A681A617B6900225A617B6901226D
:105278005A70FB7A03F00F03DAB27B691A70FB6885
:105288009B79012B02D17A687B69DA61FB6818681F
:10529800FB689B791A46796901F044FF0023184698
:1052A8001837BD4680BD80B584B000AF78600B4626
:1052B800FB70FB7803F00F037A681279934201D9E7
:1052C80001234FE097F90330002B0FDAFB7803F046
:1052D8000F021346DB0013449B0010337A68134413
:1052E8000433FB60FB6801225A700DE0FA7813461C
:1052F800DB0013449B0003F514737A6813440433EA
:10530800FB60FB6800225A70FB6801229A70FB78E8
:1053180003F00F03DAB2FB681A707B6893F89434D1
:10532800012B01D102231DE07B68012283F894241C
:105338007B681B68F968184602F0D2FAFB7803F01C
:105348000F03002B09D17B6818687B6899797B6803
:1053580003F29C431A4602F0C3FC7B68002283F8E0
:105368009424002318461037BD4680BD80B584B00C
:1053780000AF78600B46FB70FB7803F00F037A6888
:105388001279934201D9012342E097F90330002BA7
:105398000FDAFB7803F00F021346DB0013449B007F
:1053A80010337A6813440433FB60FB6801225A7097
:1053B8000FE0FB7803F00F021346DB0013449B0059
:1053C80003F514737A6813440433FB60FB68002206
:1053D8005A70FB6800229A70FB7803F00F03DAB268
:1053E800FB681A707B6893F89434012B01D102236F
:1053F8000EE07B68012283F894247B681B68F968B7
:10540800184602F0DBFA7B68002283F89424002314
:1054180018461037BD4680BD80B584B000AF7860AF
:105428000B46FB7097F90330002B0CDAFB7803F07E
:105438000F021346DB0013449B0010337A681344B1
:105448000433FB600CE0FB7803F00F021346DB002B
:1054580013449B0003F514737A6813440433FB6008
:105468007B681B68F968184602F0FAF80346FB7275
:10547800FB7A18461037BD4680BD80B58AB002AFAA
:10548800786039607B681B687B617B693B613A683F
:105498001346DB0013449B0010337A68134404332B
:1054A800FB60FB685A69FB681B699A4201D90123B2
:1054B8006BE0FB681A69FB685B69D31AFB61FB68E0
:1054C8009B68FA699A4202D9FB689B68FB61FB6991
:1054D80003339B08BB612AE0FB681A69FB685B69B8
:1054E800D31AFB61FB689B68FA699A4202D9FB6888
:1054F8009B68FB61FB6903339B08BB61FB68D96848
:105508003B68DAB2FB6998B27B689B7900930346E3
:10551800786902F04FF9FB68DA68FB691A44FB689E
:10552800DA60FB685A69FB691A44FB685A613B6890
:105538005A013B69134403F510639B699BB2BA692E
:105548009A4209D8FB685A69FB681B699A4203D2D8
:10555800FB681B69002BBFD1FB681A69FB685B6994
:105568009A4211D83B6803F00F03012202FA03F3B1
:10557800BB603B6903F500635A6BBB68DB43396961
:1055880001F5006113404B63002318462037BD46E0
:1055980080BD000080B588B000AF786039607B6856
:1055A8001B68FB61FB69BB61FB693C3304331B6807
:1055B8007B613B685A01BB69134403F530639B6800
:1055C8003B617B689B79012B7BD13B6903F0080326
:1055D800002B15D07B69614A934240F2B9803B6940
:1055E80003F40043002B00F0B3803B685A01BB6909
:1055F800134403F530631A464FF400439360A7E061
:105608003B6903F02003002B09D03B685A01BB69B2
:10561800134403F530631A462023936098E03B69EE
:1056280003F02803002B40F093807B694B4A934298
:105638000FD93B6903F40043002B0AD03B685A0199
:10564800BB69134403F530631A464FF40043936073
:105658007EE03A681346DB0013449B0003F514739D
:105668007A6813440433FB60FB681A6A3B68590183
:10567800BB690B4403F530631B69C3F31203D21AE9
:10568800FB685A613B68002B14D1FB681B69002B2F
:1056980009D17B6818687B6803F29C431A4601218C
:1056A80002F01EFB06E0FB68DA68FB685B691A44D7
:1056B800FB68DA603B68DBB21946786804F0F4FDF1
:1056C80046E07B69264A934224D13B6903F40043B0
:1056D800002B0AD03B685A01BB69134403F53063B9
:1056E8001A464FF40043936032E03B6903F020030D
:1056F800002B08D03B685A01BB69134403F530639B
:105708001A46202393603B68DBB21946786804F098
:10571800CBFD1DE03B68002B14D179683A6813462D
:10572800DB0013449B000B4403F519731B68002B23
:1057380008D17B6818687B6803F29C431A460021ED
:1057480002F0CEFA3B68DBB21946786804F0ACFD8B
:10575800002318462037BD4680BD00BF0A30544F8D
:105768000A31544F80B586B000AF786039607B68E5
:105778001B687B617B693B617B693C3304331B6835
:10578800FB603B685A013B69134403F530639B682F
:10579800BB60FB68154A93420ED9BB6803F400430B
:1057A800002B09D03B685A013B69134403F5306369
:1057B8001A464FF400439360786804F063FDFB6871
:1057C8000A4A93420CD97B689B79012B08D17B68E4
:1057D80018687B6803F29C431A46012102F080FA9C
:1057E800002318461837BD4680BD00BF0A30544F05
:1057F80080B485B000AF78600B46FB7013463B80E1
:105808007B681B685B6ABB60FB78002B07D13B8811
:1058180019047B681B68BA680A439A6228E07B68A7
:105828001B689B6A1B0CBA681344BB600023FB739C
:105838000DE07B681A68FB7B40339B0013445B6870
:105848001B0CBA681344BB60FB7B0133FB73FA7B08
:10585800FB78013B9A42ECD33B8818047B681968B3
:10586800FB78013BBA68024340339B000B445A6003
:10587800002318461437BD465DF8047B704780B492
:1058880083B000AF78600B467B807B681B687A88A2
:105898005A62002318460C37BD465DF8047B7047F2
:1058A80080B483B000AF78600B46FB7000BF0C3744
:1058B800BD465DF8047B704780B586B000AF786060
:1058C8007B68002B01D1012367E27B681B6803F02A
:1058D8000103002B75D0884B9B6803F00C03042B45
:1058E8000CD0854B9B6803F00C03082B12D1824B1C
:1058F8005B6803F48003B3F5800F0BD17E4B1B6804
:1059080003F40033002B5BD07B685B68002B57D116
:10591800012342E27B685B68B3F5803F06D1764B92
:105928001B68754A43F4803313601DE07B685B682D
:10593800B3F5A02F0CD1704B1B686F4A43F480233A
:1059480013606D4B1B686C4A43F4803313600BE0A3
:10595800694B1B68684A23F480331360664B1B68E5
:10596800654A23F4802313607B685B68002B13D09F
:10597800FBF7E4FC386108E0FBF7E0FC02463B6912
:10598800D31A642B01D9032307E25B4B1B6803F48A
:105998000033002BF0D014E0FBF7D0FC386108E0AE
:1059A800FBF7CCFC02463B69D31A642B01D90323CD
:1059B800F3E1514B1B6803F40033002BF0D100E0F6
:1059C80000BF7B681B6803F00203002B63D04A4BBF
:1059D8009B6803F00C03002B0BD0474B9B6803F02C
:1059E8000C03082B1CD1444B5B6803F48003002B89
:1059F80016D1414B1B6803F00203002B05D07B68CE
:105A0800DB68012B01D00123C7E13B4B1B6823F066
:105A1800F8027B681B69DB00374913430B603AE0E7
:105A28007B68DB68002B20D0344B01221A60FBF71F
:105A380085FC386108E0FBF781FC02463B69D31A14
:105A4800022B01D90323A8E12B4B1B6803F00203A7
:105A5800002BF0D0284B1B6823F0F8027B681B69E9
:105A6800DB00254913430B6015E0244B00221A6024
:105A7800FBF764FC386108E0FBF760FC02463B6911
:105A8800D31A022B01D9032387E11B4B1B6803F0B0
:105A98000203002BF0D17B681B6803F00803002B7E
:105AA80036D07B685B69002B16D0154B01221A6033
:105AB800FBF744FC386108E0FBF740FC02463B6911
:105AC800D31A022B01D9032367E10B4B5B6F03F059
